:020000040800F2
:1000000068040020D500000829140008A312000885
:1000100000000000000000000000000000000000E0
:10002000000000000000000000000000A71400080D
:100030000000000000000000A5140008A91400083A
:10004000E7000008E7000008E7000008E7000008F4
:10005000E7000008E7000008E7000008E7000008E4
:1000600000000000E7000008E7000008E7000008C3
:10007000E7000008E70000080000000095150008F0
:1000800000000000E7000008000000000000000081
:10009000E700000800000000E7000008E700000893
:1000A000E7000008E7000008E7000008E700000894
:1000B000E7000008E7000008000000000000000062
:1000C0000348854600F03CF800480047C91700087F
:1000D000680400200448804704480047FEE7FEE724
:1000E000FEE7FEE7FEE7FEE72D150008C100000869
:1000F00030B50B46014600202022012409E00D46C0
:10010000D5409D4205D31D469540491B2546954047
:1001100040191546521E002DF1DC30BDD2B201E06F
:100120000270401C491EFBD270470022F6E710B552
:1001300013460A4604461946FFF7F0FF204610BD55
:10014000064C0125064E05E0E36807CC2B430C3C2A
:1001500098471034B442F7D3FFF7B6FF0C180008E5
:100160002C1800087047000070B5034600220024D8
:100170000020DAE0012696400D6835402C46002C20
:1001800077D04D68012D08D04D68022D05D04D68FF
:10019000112D02D04D68122D18D1986856000325F4
:1001A000B5400646AE4330465600CD68B5402843BC
:1001B00098605868012595400646AE4330461026A3
:1001C0004D6835402D09954028435860D868560041
:1001D0000325B5400646AE43304656008D68B5400F
:1001E0002843D8604D68022D02D04D68122D15D1DC
:1001F000D508AE001D462035A8595507EE0E0F252F
:10020000B5400646AE4330465607F60E0D69B5407A
:100210002843D508AD001E46203670511868560098
:100220000325B5400646AE4330460D79AD07AD0F08
:100230005600B54028431860012636074D68354002
:10024000B54271D13C4D6D6B012635433A4E756315
:100250003A4D9608B600A85995072E0F0F25B540C0
:100260000646AE43304605252D07AB4202D1002598
:1002700015E059E0324DAB4201D101250FE0314D7F
:10028000AB4201D102250AE02F4DAB4201D103253B
:1002900005E02E4DAB4201D1052500E0062596076D
:1002A000360FB5402843254D9608B600A851284D75
:1002B00028680546A5432846012636044D68354082
:1002C000B54202D1054625432846214D286068687D
:1002D0000546A5432846012676044D683540B542BB
:1002E00002D1054625432846194D6860A868054691
:1002F000A5432846012636054D683540B54202D152
:10030000054625432846124DA860E8680546A543E2
:100310002846012676054D683540B54202D105468E
:10032000254328460A4DE860521C0D68D540002D33
:1003300000D01FE770BD000000100240080001401F
:100340000004005000080050000C0050001C005039
:100350000004014010B5426913460B401B040C46D3
:1003600094432343836110BD002A01D0816100E0E2
:100370008162704701480068704700001C0000203F
:10038000034800680349097840180149086070472C
:100390001C0000202400002010B50024084800683C
:1003A0004021084306490860002000F00BF80028AF
:1003B00001D0012401E000F02FF8204610BD00001C
:1003C0000020024070B50446104801787D20C0002E
:1003D000FFF78EFE064631460D480068FFF788FE9F
:1003E000054600F0BDFC002801D0012070BD042CA2
:1003F00007D200222146501E00F02AF8054804606A
:1004000001E00120F2E70020F0E7000024000020D6
:1004100028000020200000200648406B01210843EE
:10042000044948630846806B09040843014988630E
:10043000704700000010024000BFC206D20E01212A
:100440009140024A116000BF7047000000E100E0E7
:1004500070B504460D4616462946204600F0E6FFD4
:1004600070BD0000F8B504460D46002C01D10120F6
:10047000F8BD79480068C007C00FA8420ED2764880
:100480000068400840002843734908600846006837
:10049000C007C00FA84201D00120E9E7022120686F
:1004A0000840022807D16D48C068F0218843A16840
:1004B00008436A49C8602078C007C00F00284CD0A4
:1004C0006068022809D16548006801214904084094
:1004D000400C002824D10120CAE76068032809D114
:1004E0005E480068012149060840400E002817D1E7
:1004F0000120BDE76068012808D158480068042140
:100500000840800800280BD10120B1E7534800685B
:10051000012149020840400A002801D10120A7E733
:100520004E48C06880088000616808434B49C86035
:10053000FFF720FF0646606802280FD107E0FFF7AB
:1005400019FF801B4649884201D9032090E74348A0
:10055000C0680C2108400828F1D134E06068032805
:100560000FD107E0FFF706FF801B3D49884201D904
:1005700003207DE73948C0680C2108400C28F1D1E0
:1005800021E0606801280FD107E0FFF7F3FE801B30
:100590003349884201D903206AE73048C0680C21FA
:1005A00008400428F1D10EE007E0FFF7E3FE801BCE
:1005B0002B49884201D903205AE72848C0680C21FA
:1005C00008400028F1D124480068C007C00FA842A5
:1005D0000ED9214800684008400028431E490860A1
:1005E00008460068C007C00FA84201D001203FE7BD
:1005F000042120680840042808D11848C068072151
:1006000009028843E16808431449C860082120684A
:100610000840082809D11148C0680721C902884349
:100620002169C90008430D49C86000F01FF80B4953
:10063000C968F022114009090A4A515CC8400A49B8
:1006400008600020FFF7BEFE0746002F01D03846A5
:100650000EE700200CE700000020024000100240DE
:1006600088130000E817000828000020FEB52E4877
:10067000C7680C203840002845D0042804D008283A
:100680000CD00C283ED10BE0274800681021084010
:10069000002801D0254C00E0254C41E0254C3FE0EE
:1006A0000F2080043840800C23490E5C0320800515
:1006B0003840800D401C01901B48C068012109048E
:1006C0000840002807D01B49714308460199FFF7ED
:1006D0000FFD054614E0144800681021084000286A
:1006E00007D01249714308460199FFF701FD0546FD
:1006F00006E00F49714308460199FFF7F9FC0546EA
:100700002C460DE000BF0848406807214903084017
:10071000400B00900098401C01218140CC0300BF99
:1007200000BF2046FEBD00000010024000093D0051
:100730000024F40000127A0000180008FEB50446F8
:10074000002C01D10120FEBDF848C6680C210E40E6
:10075000C768012109040F402078C007C00F002896
:1007600072D0082E04D00C2E0FD1084687420CD12F
:10077000EE480068012149040840400C002863D07D
:100780006068002860D10120DDE700BF0121090475
:100790006068884205D1E54800680843E34908607D
:1007A00027E005210904606888420ED1DF4800680F
:1007B000012189040843DD490860084600680121D9
:1007C00009040843D949086013E0D84800680121AA
:1007D00009048843D54908600846006801210904D6
:1007E0000840009000BFD148006889008843CF4985
:1007F000086000BF6068002813D0FFF7BBFD054606
:1008000006E0FFF7B7FD401B642801D903209AE7F3
:10081000C6480068012149040840400C0028F0D077
:1008200012E0FFF7A7FD054606E0FFF7A3FD401B1A
:10083000642801D9032086E7BC48006801214904E7
:100840000840400C0028F0D102212068084002280E
:100850007AD1E0680290042E03D00C2E34D1002F00
:1008600032D1B2480068042108408008002804D032
:100870000298002801D1012065E7AC4840681F219B
:1008800009028843216909020843A84948600846CB
:1008900000680921884302990843A4490860FFF7CA
:1008A000E5FEA249C968F02211400909A04A515C3D
:1008B000C840A04908600020FFF784FD019001981E
:1008C000002841D001983EE70298002824D097489C
:1008D0000068092188430299084394490860FFF79A
:1008E00049FD054606E0FFF745FD401B022801D9FA
:1008F000032028E78D48006804210840800800286C
:10090000F1D08A4840681F21090288432169090201
:1009100008438649486017E0844800684008400062
:1009200082490860FFF726FD054606E0FFF722FD35
:10093000401B022801D9032005E77C4800680421F8
:10094000084080080028F1D11021206808401028B4
:1009500067D1002E36D17548006849010840400A29
:10096000002804D0A069002801D10120EBE66F48DF
:100970004068072149038843216A08436B4948605E
:10098000084640680002000A217F090608436749BB
:100990004860206A400B401C01218140C803634924
:1009A000C968F02211400909614A515CC840614997
:1009B00008600020FFF706FD0190019800284BD049
:1009C0000198C0E6A06900282CD058480068FF2193
:1009D0000131084355490860FFF7CCFC054606E0A5
:1009E000FFF7C8FC401B022801D90320ABE64F48A3
:1009F0000068012149020840400A0028F0D04B4815
:100A00004068072149038843216A084347494860F1
:100A1000084640680002000A217F0906084343494E
:100A2000486019E041480068FF21013188433F498F
:100A30000860FFF79FFC054606E0FFF79BFC401BA4
:100A4000022801D903207EE63848006801214902C6
:100A50000840400A0028F0D10821206808400828F2
:100A600039D1606900281BD030484030006901212D
:100A700008432E4940310861FFF77CFC054606E03B
:100A8000FFF778FC401B022801D903205BE62748CA
:100A9000403000690221084040080028F0D01AE0E8
:100AA0002248403000694008400020494031086138
:100AB000FFF760FC054606E0FFF75CFC401B0228E0
:100AC00001D903203FE6194840300069022108405F
:100AD00040080028F0D1042120680840042879D17A
:100AE000002000901148806B89060840002806D13C
:100AF0000E48806B08430D498863012000900E4822
:100B00000068FF210131084000281ED10A48006812
:100B1000084309490860FFF72DFC05460EE0FFF782
:100B200029FC401B642809D903200CE60010024070
:100B3000E817000828000020007000408548006881
:100B4000FF21013108400028E9D000BFFF21013119
:100B5000A068884205D18048006908437E49086141
:100B600030E0A06800280DD17B480069FF210131E9
:100B70008843794908610846006909158843764920
:100B800008611FE005210902A06888420DD1724862
:100B900000690121890208436F490861084600691C
:100BA000891508436C4908610CE06B480069FF2116
:100BB000013188436849086108460069091588437E
:100BC0006549086100BFA068002815D0FFF7D2FB77
:100BD000054608E031E0FFF7CDFB401B5F49884246
:100BE00001D90320AFE55C480069012149020840B2
:100BF000400A0028EFD013E0FFF7BCFB054607E0F2
:100C0000FFF7B8FB401B5549884201D903209AE5FC
:100C100051480069012149020840400A0028EFD1EB
:100C20000098012808D14C484038806B0121090701
:100C3000884349494039886300BF606A00284CD026
:100C40000C2E69D0606A022848D1434840380068B9
:100C5000012109068843404940390860FFF78AFBB3
:100C6000054606E0FFF786FB401B022801D903205A
:100C700069E5394840380068012149060840400EBE
:100C80000028EFD1E16AA06A0843216B084332498A
:100C90004039C968FD221204914308432E49403966
:100CA000C860084600680121090608432A494039FE
:100CB0000860FFF75FFB054606E0FFF75BFB401BA4
:100CC000022801D903203EE523484038006801216D
:100CD00049060840400E0028EFD038E01E48403852
:100CE00000680121090688431B4940390860FFF765
:100CF00041FB054606E0FFF73DFB401B022801D9FA
:100D0000032020E5144840380068012149060840C6
:100D1000400E0028EFD11AE0606A012800D112E5E8
:100D20000D484038C768012000043840A16A884255
:100D30000BD10F2080043840E16A884205D103209E
:100D400080053840216B884201D00120FBE400205F
:100D5000F9E40000007000404010024088130000D9
:100D600070B504462546681E0949884201D901200C
:100D70000CE0681E074948610321081F00F056FB7C
:100D800000200449886107200861002070BD000030
:100D9000FFFFFF0000E000E030B5024600BF382052
:100DA000805C012801D1022030BD01253820855406
:100DB00000BF022539208554106843681068846894
:100DC00070251846A843034608680343802520463B
:100DD000A843044648680443106843601068846070
:100DE00001253920855400BF00253820855400BFD7
:100DF0000020D9E710B50446002C01D1012010BD18
:100E00003920005D002805D10021382001552046F9
:100E100000F00CF8022139200155211D206800F056
:100E2000C1FB0121392001550020E8E710B5044637
:100E300001218907206888420DD10748806B012174
:100E4000084305498863002211460F20FFF700FB85
:100E50000F20FFF7F1FA10BD0010024001460868AC
:100E6000C068012318430B68D8600868806842078F
:100E7000520F062A05D008680068012318430B6842
:100E8000186000207047F8B504460D4600BF3820B2
:100E9000005D012801D10220F8BD01213820015553
:100EA00000BF02213920015520688668772130462D
:100EB00088430646FF2109023046884306462068DB
:100EC00086602868502834D00CDC202851D004DCFF
:100ED00000284CD0102852D14AE030284AD040286F
:100EE0004DD13AE060282ED0702807D001210903A7
:100EF000401A02D0401A42D10DE041E0EB686A6826
:100F0000A968206800F084FB206886687720064383
:100F10002068866034E0EB686A68A968206800F0A1
:100F200077FB206880680121890308432168886075
:100F300026E0EA686968206800F005FC5021206816
:100F400000F074FB1CE0EA686968206800F014FC9B
:100F50006021206800F06AFB12E0EA686968206896
:100F600000F0F1FB4021206800F060FB08E000BFCA
:100F700000BF00BF2968206800F058FB00E000BFF8
:100F800000BF01213920015500BF00213820015543
:100F900000BF002080E7704710B504462068006954
:100FA00002210840400800281CD02068C068084082
:100FB0004008002816D0481F2168086101202076CB
:100FC000206880698007800F002803D02046FFF743
:100FD000E2FF05E0204600F09DF8204600F041F9D0
:100FE000002020762068006904210840800800283D
:100FF0001DD02068C06808408008002817D0C8436A
:101000002168086102202076206880690321090296
:101010000840002803D02046FFF7BDFF05E020462A
:1010200000F078F8204600F01CF9002020762068B7
:10103000006908210840C00800281CD02068C0684A
:101040000840C008002816D0C84321680861042061
:1010500020762068C0698007800F002803D02046D2
:10106000FFF799FF05E0204600F054F8204600F015
:10107000F8F8002020762068006910210840000957
:1010800000281DD02068C06808400009002817D03B
:10109000C84321680861082020762068C0690321C0
:1010A00009020840002803D02046FFF774FF05E03E
:1010B000204600F02FF8204600F0D3F800202076DC
:1010C00020680069C007C00F01214840484000283F
:1010D0000CD02068C068084048404840002805D02F
:1010E000C81E21680861204600F0BCF8206800692D
:1010F00040210840800900280BD02068C0680840C3
:101100008009002805D0C84321680861204600F006
:10111000C7F810BD704770B504460D46164600BFAF
:101120003820005D012801D1022070BD0121382046
:10113000015500BF022139200155002E06D0042E92
:101140001BD0082E33D00C2E62D147E029462068F0
:1011500000F078FA206880690821084321688861D6
:10116000206880690421884321688861206880693B
:10117000E9680843216888614BE02946206800F04F
:101180007DFA206880690121C902084321688861CD
:10119000206880690121890288432168886120686C
:1011A0008069E968090208432168886131E02946BD
:1011B000206800F085FA2068C0690821084321688A
:1011C000C8612068C069042188432168C86120681B
:1011D000C069E96808432168C8611AE029462068A7
:1011E00000F08DFA2068C0690121C9020843216816
:1011F000C8612068C0690121890288432168C861EB
:101200002068C069E968090208432168C86100E0F4
:1012100000BF00BF01213920015500BF0021382047
:10122000015500BF002080E710B50446002C01D115
:10123000012010BD3920005D002805D10021382093
:101240000155204600F00CF8022139200155211DDE
:10125000206800F0A7F90121392001550020E8E7B6
:101260007047704710B504460B480088401C80B298
:101270000949088002280ED1202105200007FFF728
:1012800069F806490978491CC9B2044A1170084630
:1012900000200149088010BD180000201A0000201D
:1012A000704700BFFEE7000000B587B0142102A818
:1012B000FEF73BFF00BF3048C06A042108432E49B7
:1012C000C8620846C06A04210840019000BF00BF00
:1012D00000BF2948C06A012108432749C86208465F
:1012E000C06AC007C00F019000BF00BF00BF084622
:1012F000C06A022108432049C8620846C06A022128
:101300000840019000BF00BF0122202105200007F6
:10131000FFF72AF80022802105200007FFF724F8B4
:10132000012203211548FFF71FF820200290012019
:10133000039004900320059002A905200007FEF702
:1013400013FF8020029001200390002004900320CE
:10135000059002A905200007FEF706FF0320029072
:101360000120039004900320059002A90348FEF792
:10137000FBFE07B000BD000000100240000400505A
:1013800000B58BB000200790089009900A90059056
:10139000069001900290039004900120800720495C
:1013A00008602048486000211D4881601D49C160D7
:1013B0000021016180214161FFF71CFD002801D05F
:1013C000FEF7D0FE01200003079007A91448FFF79D
:1013D0005AFD002801D0FEF7C5FE1148FFF724FF93
:1013E000002801D0FEF7BEFE00200590069005A95A
:1013F0000B48FFF7D1FC002801D0FEF7B3FE6020B8
:1014000001900020029003900490002201A904485A
:10141000FFF781FE002801D0FEF7A4FE0BB000BD4F
:101420002C0000209F0F00007047000010B500281E
:1014300019DA1A4A03071B0F083B9B089B00D25876
:101440008307DC0EFF23A3409A438B071B0E840700
:10145000E40EA3401A43114B0407240F083CA408D0
:10146000A4001A5118E00E4A03231B02D218830865
:101470009B00D2588307DC0EFF23A3409A438B07BF
:101480001B0E8407E40EA3401A43054B03242402D9
:101490001B198408A4001A5110BD00001CED00E0C7
:1014A00000E100E07047704710B5FEF769FF10BD1E
:1014B00000B593B0342106A8FEF737FE142101A829
:1014C000FEF733FE184800680321C9028843012152
:1014D000C9024018144908600220069001200990B2
:1014E00010200A9002200F900021109141041191C8
:1014F0004105129106A8FFF721F9002801D0FEF757
:1015000031FE0F20019003200290002003900490F0
:101510000590012101A8FEF7A5FF002801D0FEF7E4
:1015200021FE13B000BD00000070004015480068A7
:10153000FF2101310843134908600846C068124979
:1015400008401049C86008460068104908400D4925
:1015500008600846806840084000886008460068C7
:10156000012189048843074908600846C068FD21B5
:10157000090488430349C86000200861C80304497E
:1015800088607047001002400C40FF88F6FFF6FEAE
:1015900000ED00E010B50248FFF7FEFC10BD0000B2
:1015A0002C00002010B5026801239B07984205D04B
:1015B000154B984202D0154B984205D17024134622
:1015C000A3431A464B681A4301239B07984205D050
:1015D0000D4B984202D00D4B984206D103242402B1
:1015E0001346A3431A46CB681A4380241346A343E9
:1015F0000C6923431A4602608B68C3620B688362DE
:101600000123436110BD00000008014000140140A7
:1016100070B50C468168FF2636020D46B543294653
:101620001D02154325432943816070BD10B50A464C
:10163000816870240B46A3431946072313431943BB
:10164000816010BD70B5056A6D086D000562036AA2
:101650004468826970261546B5432A46920892006E
:101660000D682A4302261D46B5432B468D682B4341
:10167000446082614D684563036270BD70B5056A60
:101680001026B5430562036A44688269072636035B
:101690001546B5432A46032636021546B5432A4663
:1016A0000D682D022A4320261D46B5432B468D6822
:1016B0002D012B43446082614D688563036270BDD8
:1016C00070B5056AFF260136B5430562036A4468B2
:1016D000C26970261546B5432A46920892000D68E5
:1016E0002A43012676021D46B5432B468D682D02FE
:1016F0002B434460C2614D68C563036270BD70B521
:10170000056A01263603B5430562036A4468C26967
:10171000072636031546B5432A46032636021546E4
:10172000B5432A460D682D022A43012676031D463D
:10173000B5432B468D682D032B434460C2614D6831
:101740000564036270BD70B50B461446026A056AF3
:101750006D086D0005628169F0260D46B543294686
:10176000250129430A261546B5432A4615461D4339
:101770002A468161026270BD70B50B461446056A47
:101780001026B54305628169026A0F2636030D46AD
:10179000B543294625032943A0261546B5432A46C5
:1017A0001D012A438161026270BD02E008C8121F58
:1017B00008C1002AFAD170477047002001E001C13A
:1017C000121F002AFBD17047FEF7E6FDFFF770FEFF
:1017D000FFF76AFDFFF7D4FD0248FFF73FFB00BFAC
:1017E000FEE700002C0000200000000000000000C8
:1017F00001020304060708090000000001020304B7
:10180000030406080C101820300000002C180008F3
:10181000000000202C000000AA170008581800083B
:101820002C0000203C040000BA1700080000000053
:101830000000004500000045000000450000004594
:101840000000000000000000000000000400000094
:0818500001000000000020006F
:04000005080000C12E
:00000001FF
