:020000040800F2
:1000000070040020D5000008C51B0008DF19000897
:1000100000000000000000000000000000000000E0
:10002000000000000000000000000000431C000869
:100030000000000000000000411C0008451C0008F2
:10004000E7000008E7000008E7000008E7000008F4
:10005000E7000008E7000008E7000008E7000008E4
:1000600000000000E7000008E7000008E7000008C3
:10007000E7000008E700000800000000311D00084C
:1000800000000000E7000008000000000000000081
:10009000E700000800000000E7000008E700000893
:1000A000E7000008E7000008E7000008E700000894
:1000B000E7000008E7000008000000000000000062
:1000C0000348854600F0C0FA00480047951F000825
:1000D000700400200448804704480047FEE7FEE71C
:1000E000FEE7FEE7FEE7FEE7C91C0008C1000008C6
:1000F00030B50B46014600202022012409E00D46C0
:10010000D5409D4205D31D469540491B2546954047
:1001100040191546521E002DF1DC30BDD2B201E06F
:100120000270401C491EFBD270470022F6E710B552
:1001300013460A4604461946FFF7F0FF204610BD55
:10014000F8B502464A40D40F42004B0052085B0803
:100150009A4202D20246084611464A0023D0C30DF5
:100160004A00DDB2120EAD1A202D35DA4902012601
:10017000490AF6058A19002C00D0524220214F1B53
:100180001146B9402A411018C20D9A4221D0002CC4
:1001900017D0012D08DCDA05801AD20F8019D2079A
:1001A000DBB200F000F9F8BDDA05801A0123400047
:1001B0001B06C01880185A428018CA0F1043490005
:1001C00007E04908C2071143DA05801A8019400880
:1001D000801800F0E0F8F8BD61000122511A001B00
:1001E000F7E70122D2075140AAE70122D207504087
:1001F000A6E7024670B54A40D30FDB0740002DD07A
:100200004A002AD0010E140E000212020919400AF7
:10021000520A8418E50104465443000A120A2E04C7
:100220005043A4194219200CC543AA18120C0125E9
:10023000AD03521C521912047F39240400D0521C01
:10024000104301D44000491EC2B20C06C009201858
:10025000401C4008802A02D003E0002070BD400806
:100260004000002900DA0020184370BD70B5024636
:100270004A40D50F40004A00ED07400852080028C8
:1002800014D0002A12D0C40DD30D41020120C005A4
:100290005202490A520AE41A091812187D3491428E
:1002A00001D3641C00E04900002C01DA002070BD7D
:1002B0000023914201D3891A0343400849000028D2
:1002C000F7D100290AD0914202D10121C90705E0E6
:1002D000914201D2012101E00121C943E005C0188A
:1002E000401900F058F870BD4A0009030123090BBA
:1002F0001B051943094B10B5520D9A4201DA002033
:1003000010BD064B34339A4203DC9A1A00F032F8DF
:1003100010BD03495118884010BD0000FF030000C4
:10032000CDFBFFFFC20FD207400040080BD0C10D2C
:100330000723DB01C91840020905400A1143C2081E
:100340004007114370470020014670470122D20741
:10035000002800DB101A002900DB511A8142704787
:100360000122D207002800DB101A002900DB511AF5
:100370008842704710B5202A04DB0846203AD04056
:10038000002110BD0B46D340D0402024A21A91403A
:100390000843194610BD002904DA401C490001D168
:1003A00040084000704770B40024050C05D11024AB
:1003B000000402D1002921D01124050E01D1000230
:1003C0000834050F01D10001241D850F01D18000E3
:1003D000A41C002801DB4000641C002908D0202553
:1003E0002E1B0D46F540A14000D0012129430843B2
:1003F00001061B1B000ADB1D02D5002070BC7047E4
:10040000DB05181880180029F8DA401C4900F5D1DE
:1004100070BC400840007047F0B507460846584099
:1004200087B0C00F049048000E46590040084908A4
:10043000BC1A884105D2384631461E4617460B463F
:1004400002465800400810434CD0300D0390400540
:100450005900400D490D0590401A0290402872DA6B
:1004600018030121000B090508430190049800922C
:10047000002805D001995242002088410092019045
:10048000029840210A1A0199009800F0EFF80546F9
:100490000C466B4607CB00F0F9F8C0197141039A7E
:1004A0000E0D0023D71756401A467A40164344D003
:1004B000049A002A2DD0029A012A039A15DC12050B
:1004C000C01A914101263605001C7141D20F059ECC
:1004D000D2070093019202962A46234600F0F6F8CE
:1004E00007B0F0BD38463146FAE71605224A0F46F6
:1004F000B218C01AB74101210905001C4F4100186C
:100500007F41114618187941E20F10436D1964417B
:1005100013E0E2076D0815436408C2071443039A09
:1005200001261205C01A91413605001C7141CE0703
:10053000400830434908C01851412A46234600F07C
:10054000B8F8CDE7FFE7049801224000C117121A5E
:1005500000238B4104983146C417381AA141EEE7B5
:1005600030B40124E407634030BC55E730B40124C3
:10057000E407614030BC4FE70000E0FFF8B50546F6
:10058000480040080C46284304D06000184A400D3B
:10059000904201DD2846F8BD15493539884210DC06
:1005A00088420BDB290D200308432903014305D0B2
:1005B000E00F1049C00741180020F8BD0020014697
:1005C000F8BD161A4020821B2846214600F04EF83E
:1005D00007460091284621463246FFF7CBFE3A46B1
:1005E000009B00F066F8324600F040F8F8BD0000CD
:1005F000330400000000F03F10B5002904DB0124A3
:10060000E40740428C412146002B04DB1C460123B9
:10061000DB075242A3418B4200D1824210BD000051
:1006200010B5002904DB0124E40740428C41214637
:10063000002B04DB1C460123DB075242A3419942F5
:1006400000D1904210BD0000064C0125064E05E089
:10065000E36807CC2B430C3C98471034B442F7D3E3
:10066000FFF732FDE82100080822000810B5202A13
:1006700004DB0146203A9140002010BD9140202328
:100680009C1A0346E3401943904010BD10B5202A40
:1006900006DBCB170846203A1041C1170B4306E092
:1006A0000B461341D0402024A21A9140084319461A
:1006B00010BD10B5002B08DA0024401C61419218CF
:1006C0005B411A4301D14008400010BDF0B51FB492
:1006D00082B005460C0003D0084601F034FC02E06D
:1006E00001F031FC20300246009021462846FFF7F9
:1006F000BDFF049B059A04460F4618431143084367
:1007000014D0184610431BD0009840210A1A1846EE
:100710000599FFF72FFE05460E46009A05990498A5
:10072000FFF7A4FF084305D0012004E02046394626
:1007300007B0F0BD0020C11705430E432C433743DB
:1007400000990E986305401A7905E40A00220C43CB
:10075000FD0A0A3002D500200146E9E7010510191B
:1007600069410C9C0D9D00196941FFF7A2FFDFE76D
:100770007047000070B5044600F022F90646254691
:10078000681C002802D0054800782D1800BF00F032
:1007900017F9801BA842FAD370BD00002800002082
:1007A00070B50346002200240020DAE001269640BE
:1007B0000D6835402C46002C77D04D68012D08D0AF
:1007C0004D68022D05D04D68112D02D04D68122DB7
:1007D00018D1986856000325B5400646AE4330460A
:1007E0005600CD68B540284398605868012595406B
:1007F0000646AE43304610264D6835402D099540DB
:1008000028435860D86856000325B5400646AE43D5
:10081000304656008D68B5402843D8604D68022D9B
:1008200002D04D68122D15D1D508AE001D462035D9
:10083000A8595507EE0E0F25B5400646AE43304683
:100840005607F60E0D69B5402843D508AD001E4683
:1008500020367051186856000325B5400646AE4351
:1008600030460D79AD07AD0F5600B54028431860EE
:10087000012636074D683540B54271D13C4D6D6B50
:10088000012635433A4E75633A4D9608B600A8598D
:1008900095072E0F0F25B5400646AE433046052579
:1008A0002D07AB4202D1002515E059E0324DAB4295
:1008B00001D101250FE0314DAB4201D102250AE003
:1008C0002F4DAB4201D1032505E02E4DAB4201D1A6
:1008D000052500E006259607360FB5402843254D2F
:1008E0009608B600A851284D28680546A543284615
:1008F000012636044D683540B54202D105462543F0
:100900002846214D286068680546A54328460126EB
:1009100076044D683540B54202D105462543284648
:10092000194D6860A8680546A54328460126360586
:100930004D683540B54202D1054625432846124D43
:10094000A860E8680546A5432846012676054D6857
:100950003540B54202D10546254328460A4DE86098
:10096000521C0D68D540002D00D01FE770BD00005F
:100970000010024008000140000400500008005030
:10098000000C0050001C0050000401400246136996
:100990000B40002B01D0012000E00020704710B573
:1009A000426913460B401B040C4694432343836166
:1009B00010BD002A01D0816100E081627047000013
:1009C00001480068704700002000002003480068CC
:1009D0000349097840180149086070472000002049
:1009E0002800002010B50024084800684021084372
:1009F00006490860002000F00BF8002801D001240F
:100A000001E000F02FF8204610BD00000020024059
:100A100070B50446104801787D20C000FFF768FBE0
:100A2000064631460D480068FFF762FB054600F0B8
:100A3000BDFC002801D0012070BD042C07D200228B
:100A40002146501E00F02AF80548046001E001200C
:100A5000F2E70020F0E70000280000202C00002032
:100A6000240000200648406B0121084304494863E4
:100A70000846806B090408430149886370470000F9
:100A80000010024000BFC206D20E01219140024A6E
:100A9000116000BF7047000000E100E070B504463F
:100AA0000D4616462946204601F08EF870BD00001E
:100AB000F8B504460D46002C01D10120F8BD794857
:100AC0000068C007C00FA8420ED2764800684008F0
:100AD000400028437349086008460068C007C00FFB
:100AE000A84201D00120E9E702212068084002283D
:100AF00007D16D48C068F0218843A16808436A495E
:100B0000C8602078C007C00F00284CD06068022859
:100B100009D165480068012149040840400C0028BB
:100B200024D10120CAE76068032809D15E48006823
:100B3000012149060840400E002817D10120BDE7D9
:100B40006068012808D158480068042108408008DE
:100B500000280BD10120B1E7534800680121490268
:100B60000840400A002801D10120A7E74E48C0688C
:100B700080088000616808434B49C860FFF720FF88
:100B80000646606802280FD107E0FFF719FF801BB7
:100B90004649884201D9032090E74348C0680C21A8
:100BA00008400828F1D134E0606803280FD107E03D
:100BB000FFF706FF801B3D49884201D903207DE7EE
:100BC0003948C0680C2108400C28F1D121E0606848
:100BD00001280FD107E0FFF7F3FE801B334988425D
:100BE00001D903206AE73048C0680C210840042876
:100BF000F1D10EE007E0FFF7E3FE801B2B498842AE
:100C000001D903205AE72848C0680C210840002871
:100C1000F1D124480068C007C00FA8420ED921486E
:100C200000684008400028431E49086008460068E4
:100C3000C007C00FA84201D001203FE7042120686F
:100C40000840042808D11848C068072109028843D1
:100C5000E16808431449C860082120680840082852
:100C600009D11148C0680721C90288432169C90018
:100C700008430D49C86000F01FF80B49C968F0220D
:100C8000114009090A4A515CC8400A49086000201D
:100C9000FFF7BEFE0746002F01D038460EE70020C2
:100CA0000CE7000000200240001002408813000002
:100CB000C62100082C000020FEB52E48C7680C2075
:100CC0003840002845D0042804D008280CD00C282F
:100CD0003ED10BE02748006810210840002801D0D1
:100CE000254C00E0254C41E0254C3FE00F208004DE
:100CF0003840800C23490E5C032080053840800D6D
:100D0000401C01901B48C0680121090408400028CC
:100D100007D01B49714308460199FFF7E9F90546D9
:100D200014E01448006810210840002807D0124938
:100D3000714308460199FFF7DBF9054606E00F49C4
:100D4000714308460199FFF7D3F905462C460DE09B
:100D500000BF08484068072149030840400B009045
:100D60000098401C01218140CC0300BF00BF2046F9
:100D7000FEBD00000010024000093D000024F40008
:100D800000127A00DE210008FEB50446002C01D1D5
:100D90000120FEBDF848C6680C210E40C76801213D
:100DA00009040F402078C007C00F002872D0082E19
:100DB00004D00C2E0FD1084687420CD1EE480068B3
:100DC000012149040840400C002863D060680028D5
:100DD00060D10120DDE700BF01210904606888427D
:100DE00005D1E54800680843E349086027E005218C
:100DF0000904606888420ED1DF4800680121890437
:100E00000843DD49086008460068012109040843D9
:100E1000D949086013E0D8480068012109048843D3
:100E2000D54908600846006801210904084000907F
:100E300000BFD148006889008843CF49086000BFDF
:100E40006068002813D0FFF7BBFD054606E0FFF7FA
:100E5000B7FD401B642801D903209AE7C648006803
:100E6000012149040840400C0028F0D012E0FFF7AF
:100E7000A7FD054606E0FFF7A3FD401B642801D946
:100E8000032086E7BC480068012149040840400C63
:100E90000028F0D102212068084002287AD1E068B9
:100EA0000290042E03D00C2E34D1002F32D1B24840
:100EB0000068042108408008002804D00298002817
:100EC00001D1012065E7AC4840681F210902884331
:100ED000216909020843A8494860084600680921B9
:100EE000884302990843A4490860FFF7E5FEA24938
:100EF000C968F02211400909A04A515CC840A049C4
:100F000008600020FFF784FD01900198002841D07F
:100F100001983EE70298002824D0974800680921EC
:100F200088430299084394490860FFF749FD054644
:100F300006E0FFF745FD401B022801D9032028E702
:100F40008D4800680421084080080028F1D08A48B4
:100F500040681F2109028843216909020843864924
:100F6000486017E0844800684008400082490860F3
:100F7000FFF726FD054606E0FFF722FD401B02288D
:100F800001D9032005E77C48006804210840800857
:100F90000028F1D1102120680840102867D1002EC8
:100FA00036D17548006849010840400A002804D03D
:100FB000A069002801D10120EBE66F4840680721B5
:100FC00049038843216A08436B49486008464068E2
:100FD0000002000A217F0906084367494860206A29
:100FE000400B401C01218140C8036349C968F022BD
:100FF00011400909614A515CC840614908600020FC
:10100000FFF706FD0190019800284BD00198C0E63B
:10101000A06900282CD058480068FF2101310843FE
:1010200055490860FFF7CCFC054606E0FFF7C8FC11
:10103000401B022801D90320ABE64F48006801217C
:1010400049020840400A0028F0D04B484068072178
:1010500049038843216A0843474948600846406875
:101060000002000A217F090608434349486019E04D
:1010700041480068FF21013188433F490860FFF77C
:101080009FFC054606E0FFF79BFC401B022801D9A8
:1010900003207EE638480068012149020840400AE2
:1010A0000028F0D1082120680840082839D160695B
:1010B00000281BD0304840300069012108432E49E8
:1010C00040310861FFF77CFC054606E0FFF778FC3D
:1010D000401B022801D903205BE627484030006905
:1010E0000221084040080028F0D01AE02248403091
:1010F000006940084000204940310861FFF760FC6A
:10110000054606E0FFF75CFC401B022801D90320DE
:101110003FE6194840300069022108404008002895
:10112000F0D1042120680840042879D100200090E3
:101130001148806B89060840002806D10E48806B54
:1011400008430D498863012000900E480068FF2184
:101150000131084000281ED10A48006808430949A7
:101160000860FFF72DFC05460EE0FFF729FC401B49
:10117000642809D903200CE600100240C6210008AB
:101180002C0000200070004085480068FF210131DC
:1011900008400028E9D000BFFF210131A068884243
:1011A00005D18048006908437E49086130E0A068A5
:1011B00000280DD17B480069FF210131884379491E
:1011C00008610846006909158843764908611FE0EF
:1011D00005210902A06888420DD1724800690121E9
:1011E000890208436F490861084600698915084368
:1011F0006C4908610CE06B480069FF2101318843AC
:10120000684908610846006909158843654908610D
:1012100000BFA068002815D0FFF7D2FB054608E004
:1012200031E0FFF7CDFB401B5F49884201D9032025
:10123000AFE55C480069012149020840400A0028E6
:10124000EFD013E0FFF7BCFB054607E0FFF7B8FB64
:10125000401B5549884201D903209AE5514800694D
:10126000012149020840400A0028EFD100980128D6
:1012700008D14C484038806B01210907884349490F
:101280004039886300BF606A00284CD00C2E69D0BA
:10129000606A022848D143484038006801210906A5
:1012A0008843404940390860FFF78AFB054606E05D
:1012B000FFF786FB401B022801D9032069E5394866
:1012C00040380068012149060840400E0028EFD14F
:1012D000E16AA06A0843216B084332494039C96872
:1012E000FD221204914308432E494039C860084644
:1012F00000680121090608432A4940390860FFF7C0
:101300005FFB054606E0FFF75BFB401B022801D9A7
:1013100003203EE523484038006801214906084083
:10132000400E0028EFD038E01E4840380068012108
:10133000090688431B4940390860FFF741FB054611
:1013400006E0FFF73DFB401B022801D9032020E502
:10135000144840380068012149060840400E002822
:10136000EFD11AE0606A012800D112E50D4840383B
:10137000C768012000043840A16A88420BD10F20C1
:1013800080043840E16A884205D103208005384056
:10139000216B884201D00120FBE40020F9E4000029
:1013A00000700040401002408813000070B50446F1
:1013B0002546681E0949884201D901200CE0681EB3
:1013C000074948610321081F00F0FEFB0020044983
:1013D000886107200861002070BD0000FFFFFF004A
:1013E00000E000E030B5024600BF3820805C0128F4
:1013F00001D1022030BD01253820855400BF0225CF
:101400003920855410684368106884687025184630
:10141000A84303460868034380252046A8430446A2
:1014200048680443106843601068846001253920CF
:10143000855400BF00253820855400BF0020D9E71F
:1014400010B50446002C01D1012010BD3920005DEB
:10145000002805D1002138200155204600F00CF865
:10146000022139200155211D206800F069FC01216D
:10147000392001550020E8E710B50446012189070D
:10148000206888420DD10748806B01210843054937
:101490008863002211460F20FFF700FB0F20FFF7A3
:1014A000F1FA10BD0010024001460868C06801232F
:1014B00018430B68D860086880684207520F062AF4
:1014C00005D008680068012318430B6818600020E5
:1014D0007047F8B504460D4600BF3820005D01286E
:1014E00001D10220F8BD01213820015500BF0221A1
:1014F00039200155206886687721304688430646A2
:10150000FF21090230468843064620688660286825
:10151000502834D00CDC202851D004DC00284CD0DA
:10152000102852D14AE030284AD040284DD13AE024
:1015300060282ED0702807D001210903401A02D05C
:10154000401A42D10DE041E0EB686A68A968206862
:1015500000F02CFC206886687720064320688660AF
:1015600034E0EB686A68A968206800F01FFC206816
:1015700080680121890308432168886026E0EA68C1
:101580006968206800F0ADFC5021206800F01CFC68
:101590001CE0EA686968206800F0BCFC60212068F3
:1015A00000F012FC12E0EA686968206800F099FC1B
:1015B0004021206800F008FC08E000BF00BF00BF29
:1015C0002968206800F000FC00E000BF00BF012196
:1015D0003920015500BF00213820015500BF0020EF
:1015E00080E7704710B50446206800690221084072
:1015F000400800281CD02068C06808404008002827
:1016000016D0481F21680861012020762068806973
:101610008007800F002803D02046FFF7E2FF05E097
:10162000204600F09DF8204600F041F90020207689
:101630002068006904210840800800281DD0206827
:10164000C06808408008002817D0C8432168086196
:1016500002202076206880690321090208400028C2
:1016600003D02046FFF7BDFF05E0204600F078F8E4
:10167000204600F01CF9002020762068006908212F
:101680000840C00800281CD02068C0680840C00876
:10169000002816D0C84321680861042020762068FD
:1016A000C0698007800F002803D02046FFF799FF0C
:1016B00005E0204600F054F8204600F0F8F800203D
:1016C00020762068006910210840000900281DD0FC
:1016D0002068C06808400009002817D0C843216866
:1016E0000861082020762068C069032109020840AB
:1016F000002803D02046FFF774FF05E0204600F0E5
:101700002FF8204600F0D3F80020207620680069EA
:10171000C007C00F01214840484000280CD0206875
:10172000C068084048404840002805D0C81E2168CD
:101730000861204600F0BCF820680069402108409C
:10174000800900280BD02068C06808408009002864
:1017500005D0C84321680861204600F03FF910BD5C
:10176000704770B504460D46164600BF3820005D30
:10177000012801D1022070BD01213820015500BF90
:10178000022139200155002E06D0042E1BD0082E30
:1017900033D00C2E62D147E02946206800F020FBB0
:1017A0002068806908210843216888612068806971
:1017B000042188432168886120688069E9680843BA
:1017C000216888614BE02946206800F025FB2068ED
:1017D00080690121C9020843216888612068806905
:1017E0000121890288432168886120688069E9684D
:1017F000090208432168886131E02946206800F029
:101800002DFB2068C069082108432168C861206851
:10181000C069042188432168C8612068C069E968FB
:1018200008432168C8611AE02946206800F035FBAA
:101830002068C0690121C90208432168C861206885
:10184000C0690121890288432168C8612068C06994
:10185000E968090208432168C86100E000BF00BFD1
:1018600001213920015500BF00213820015500BF5A
:10187000002080E710B50446002C01D1012010BDE6
:101880003920005D002805D100213820015520466F
:1018900000F00CF8022139200155211D206800F0CC
:1018A0004FFA0121392001550020E8E770477047C1
:1018B00070B5054642480088401C80B24049088007
:1018C00001287BD1012105200007FFF75FF80028E0
:1018D00001D0012000E000200446002C01D10220AC
:1018E00000E001200446012C05D174203549088010
:1018F00007203549087035490978491CC9B2334A6F
:1019000011700846C90F091849104900411A0CD135
:101910000121C90305200007FFF741F8002000F06E
:101920009DFB012000F09AFB44E0022C05D12548E4
:10193000008840210840002807D1002C03D124480A
:101940000078002801D1012C08D10021214800F0A5
:10195000D7FB0121204800F0D3FB07E00021084617
:1019600000F0CEFB0121002000F0CAFB002C09D1C1
:1019700017480078002801D1012000E00020144918
:10198000087017E0022C15D10F480078012806DCFA
:1019900074200C49088007200B4908700AE00948A8
:1019A00000884004000C0749088007480078401E62
:1019B0000549087000200249088000BF70BD000082
:1019C000180000201C0000201E0000201A0000202B
:1019D000160000200080BB440000E144704700BFB7
:1019E000FEE7000000B587B0142102A8FEF79DFBBA
:1019F00000BF4748C06A042108434549C8620846F9
:101A0000C06A04210840019000BF00BF00BF4048E9
:101A1000C06A012108433E49C8620846C06AC0073F
:101A2000C00F019000BF00BF00BF0846C06A02217E
:101A300008433749C8620846C06A0221084001903D
:101A400000BF00BF002289033248FEF7B2FF012227
:101A5000022105200007FEF7ACFF00220121C90387
:101A600005200007FEF7A5FF002260212A48FEF7A7
:101A7000A0FF012280212848FEF79BFF0120C00320
:101A8000029001200390022004900020059002A9FA
:101A90002048FEF785FE01200290002003900220DE
:101AA000049002A905200007FEF77AFE02200290AA
:101AB0000120039004900020059002A90520000752
:101AC000FEF76EFE0120C00302900120039000206B
:101AD0000490059002A905200007FEF761FE602032
:101AE000029001200390022004900320059002A997
:101AF0000948FEF755FE80200290012003900490D3
:101B00000320059002A90448FEF74AFE07B000BD75
:101B100000100240000800500004005000B58BB0D7
:101B200000200790089009900A9005900690019077
:101B3000029003900490012080072049086020480B
:101B4000486000211D4881601D49C160002101617C
:101B500080214161FFF774FC002801D0FEF708FEE8
:101B600001200003079007A91448FFF7B2FC0028E2
:101B700001D0FEF7FDFD1148FFF77CFE002801D0E3
:101B8000FEF7F6FD00200590069005A90B48FFF72B
:101B900029FC002801D0FEF7EBFD60200190002019
:101BA000029003900490002201A90448FFF7D9FD98
:101BB000002801D0FEF7DCFD0BB000BD3000002096
:101BC0009F0F00007047000010B5002819DA1A4A6C
:101BD00003071B0F083B9B089B00D2588307DC0EB2
:101BE000FF23A3409A438B071B0E8407E40EA340F8
:101BF0001A43114B0407240F083CA408A4001A51EF
:101C000018E00E4A03231B02D21883089B00D25807
:101C10008307DC0EFF23A3409A438B071B0E840728
:101C2000E40EA3401A43054B032424021B19840825
:101C3000A4001A5110BD00001CED00E000E100E01E
:101C40007047704710B5FEF7C1FE10BD00B593B0E8
:101C5000342106A8FEF769FA142101A8FEF765FAF7
:101C6000184800680321C90288430121C9024018AD
:101C700014490860022006900120099010200A9063
:101C800002200F9000211091410411914105129101
:101C900006A8FFF779F8002801D0FEF769FD0F20AC
:101CA00001900320029000200390049005900121F0
:101CB00001A8FEF7FDFE002801D0FEF759FD13B084
:101CC00000BD00000070004015480068FF21013190
:101CD0000843134908600846C06812490840104983
:101CE000C86008460068104908400D490860084669
:101CF0008068400840008860084600680121890427
:101D00008843074908600846C068FD2109048843E4
:101D10000349C86000200861C8030449886070470F
:101D2000001002400C40FF88F6FFF6FE00ED00E0D8
:101D300010B50248FFF756FC10BD0000300000202F
:101D400010B5026801239B07984205D0154B9842B5
:101D500002D0154B984205D170241346A3431A466E
:101D60004B681A4301239B07984205D00D4B9842BC
:101D700002D00D4B984206D1032424021346A343FC
:101D80001A46CB681A4380241346A3430C692343A5
:101D90001A4602608B68C3620B6883620123436149
:101DA00010BD0000000801400014014070B50C4651
:101DB0008168FF2636020D46B54329461D021543AC
:101DC00025432943816070BD10B50A46816870249F
:101DD0000B46A3431946072313431943816010BDE3
:101DE00070B5056A6D086D000562036A4468826912
:101DF00070261546B5432A46920892000D682A437C
:101E000002261D46B5432B468D682B4344608261F4
:101E10004D684563036270BD70B5056A1026B54311
:101E20000562036A44688269072636031546B5438E
:101E30002A46032636021546B5432A460D682D026A
:101E40002A4320261D46B5432B468D682D012B4382
:101E5000446082614D688563036270BD70B5056A38
:101E6000FF260136B5430562036A4468C2697026DD
:101E70001546B5432A46920892000D682A4301266A
:101E800076021D46B5432B468D682D022B434460D8
:101E9000C2614D68C563036270BD70B5056A0126F5
:101EA0003603B5430562036A4468C26907263603F0
:101EB0001546B5432A46032636021546B5432A463B
:101EC0000D682D022A43012676031D46B5432B4695
:101ED0008D682D032B434460C2614D680564036225
:101EE00070BD70B50B461446026A056A6D086D0038
:101EF00005628169F0260D46B5432946250129432F
:101F00000A261546B5432A4615461D432A468161D1
:101F1000026270BD70B50B461446056A1026B543C3
:101F200005628169026A0F2636030D46B5432946CC
:101F300025032943A0261546B5432A461D012A43F9
:101F40008161026270BD2021020C01D01021104677
:101F5000020A01D010460839020901D01046091FB3
:101F6000820801D01046891E420801D0881E7047A1
:101F7000081A704702E008C8121F08C1002AFAD1E7
:101F800070477047002001E001C1121F002AFBD1F9
:101F900070470000FEF726FDFFF758FEFFF722FD11
:101FA000FFF7BCFD00F0FEF80448FFF77DFA03E000
:101FB0007D20C000FEF7DEFBFAE7000030000020C5
:101FC000F0B513B406460199FEF7D8FA04460D465B
:101FD00002460B4630460199FEF7C2FA06460198C2
:101FE0001B4B0F4600280CDA00223046FEF704FB9C
:101FF0000CD90022174B30463946FEF711FB1DD293
:1020000014E000223046FEF7F7FA08D20022124B05
:1020100020462946FEF7A4FA04460D460EE00022AB
:102020000C4B30463946FEF7FBFA07D800220A4B24
:1020300020462946FEF7F0F904460D46019A69004C
:102040004908D20FD2072046114303B0F0BD00006B
:102050000000E0BF0000E03F0000F03F70B5044624
:1020600000262448005D00046100234A515A0843B9
:102070000646012280212148FEF79BFC052000F046
:102080009BF8002280211D48FEF793FC012240218D
:102090001A48FEF78EFC002500BF22E001224021F5
:1020A0001648FEF786FC0120C0053040002805D008
:1020B000012220211148FEF77CFC04E000222021AF
:1020C0000E48FEF776FC052000F076F87600002238
:1020D00040210A48FEF76DFC052000F06DF8681CF1
:1020E000C5B2182DDADB012280210448FEF761FC1D
:1020F00070BD0000100000201200002000040050FD
:10210000F0B585B007460C4600200490012C01DD97
:1021100005B0F0BD1D493846FEF722F901D21B4F2C
:1021200005E01B493846FEF711F900D2184FA00010
:1021300018490F50A000184A11583846FEF751F8B8
:10214000074612493846FDF7FBFF05468121C905C0
:10215000FEF78CF807468F21C9053846FEF749F887
:102160000E490090FEF782F80190FEF7DBF803912C
:102170000290FFF725FF0546FEF7B6F880B20490FF
:102180006100074A0498505200BFC1E700409C45D7
:1021900000409CC5000000200800002000401C45B5
:1021A0001200002010B500210846FFF7A9FF012109
:1021B0000020FFF7A5FF10BD00BF0146421E90B2F0
:1021C0000029FAD170470000000000000000010261
:1021D00003040607080900000000010203040304C9
:1021E00006080C101820300008220008000000200B
:1021F00030000000741F0008382200083000002062
:1022000040040000841F00080000000000000000DF
:10221000000090410000484100340000000001002F
:10222000000000007400070000000000040000002F
:08223000010000000000200085
:04000005080000C12E
:00000001FF
